{
  "contractName": "SmartContract",
  "abi": [
    {
      "inputs": [],
      "name": "access_control",
      "outputs": [
        {
          "internalType": "string",
          "name": "data",
          "type": "string"
        },
        {
          "internalType": "uint256",
          "name": "timestamp",
          "type": "uint256"
        }
      ],
      "stateMutability": "view",
      "type": "function",
      "constant": true
    },
    {
      "inputs": [],
      "name": "permission",
      "outputs": [
        {
          "internalType": "string",
          "name": "data",
          "type": "string"
        },
        {
          "internalType": "uint256",
          "name": "timestamp",
          "type": "uint256"
        }
      ],
      "stateMutability": "view",
      "type": "function",
      "constant": true
    },
    {
      "inputs": [],
      "name": "user_registration",
      "outputs": [
        {
          "internalType": "string",
          "name": "data",
          "type": "string"
        },
        {
          "internalType": "uint256",
          "name": "timestamp",
          "type": "uint256"
        }
      ],
      "stateMutability": "view",
      "type": "function",
      "constant": true
    },
    {
      "inputs": [
        {
          "internalType": "string",
          "name": "ur",
          "type": "string"
        }
      ],
      "name": "setSignup",
      "outputs": [],
      "stateMutability": "nonpayable",
      "type": "function"
    },
    {
      "inputs": [],
      "name": "getSignup",
      "outputs": [
        {
          "internalType": "string",
          "name": "",
          "type": "string"
        },
        {
          "internalType": "uint256",
          "name": "",
          "type": "uint256"
        }
      ],
      "stateMutability": "view",
      "type": "function",
      "constant": true
    },
    {
      "inputs": [
        {
          "internalType": "string",
          "name": "ac",
          "type": "string"
        }
      ],
      "name": "setAccess",
      "outputs": [],
      "stateMutability": "nonpayable",
      "type": "function"
    },
    {
      "inputs": [],
      "name": "getAccess",
      "outputs": [
        {
          "internalType": "string",
          "name": "",
          "type": "string"
        },
        {
          "internalType": "uint256",
          "name": "",
          "type": "uint256"
        }
      ],
      "stateMutability": "view",
      "type": "function",
      "constant": true
    },
    {
      "inputs": [
        {
          "internalType": "string",
          "name": "per",
          "type": "string"
        }
      ],
      "name": "setPermission",
      "outputs": [],
      "stateMutability": "nonpayable",
      "type": "function"
    },
    {
      "inputs": [],
      "name": "getPermission",
      "outputs": [
        {
          "internalType": "string",
          "name": "",
          "type": "string"
        },
        {
          "internalType": "uint256",
          "name": "",
          "type": "uint256"
        }
      ],
      "stateMutability": "view",
      "type": "function",
      "constant": true
    }
  ],
  "bytecode": "0x608060405234801561001057600080fd5b50610bb4806100206000396000f3fe608060405234801561001057600080fd5b50600436106100b0576000357c010000000000000000000000000000000000000000000000000000000090048063b97f95a111610083578063b97f95a11461012b578063bddeab7714610147578063dd7b6a6a14610166578063f3b0c8b714610185578063f7ca8431146101a4576100b0565b80633f5d9623146100b5578063488f56aa146100d15780638b9a5c32146100ed578063a208bcc31461010c575b600080fd5b6100cf60048036038101906100ca9190610789565b6101c3565b005b6100eb60048036038101906100e69190610789565b610200565b005b6100f561023d565b60405161010392919061086a565b60405180910390f35b6101146102df565b60405161012292919061086a565b60405180910390f35b61014560048036038101906101409190610789565b610379565b005b61014f6103b5565b60405161015d92919061086a565b60405180910390f35b61016e610458565b60405161017c92919061086a565b60405180910390f35b61018d6104f2565b60405161019b92919061086a565b60405180910390f35b6101ac61058c565b6040516101ba92919061086a565b60405180910390f35b604051806040016040528082815260200142815250600460008201518160000190816101ef9190610aac565b506020820151816001015590505050565b6040518060400160405280828152602001428152506002600082015181600001908161022c9190610aac565b506020820151816001015590505050565b6060600080600001600060010154818054610257906108c9565b80601f0160208091040260200160405190810160405280929190818152602001828054610283906108c9565b80156102d05780601f106102a5576101008083540402835291602001916102d0565b820191906000526020600020905b8154815290600101906020018083116102b357829003601f168201915b50505050509150915091509091565b60008060000180546102f0906108c9565b80601f016020809104026020016040519081016040528092919081815260200182805461031c906108c9565b80156103695780601f1061033e57610100808354040283529160200191610369565b820191906000526020600020905b81548152906001019060200180831161034c57829003601f168201915b5050505050908060010154905082565b6040518060400160405280828152602001428152506000808201518160000190816103a49190610aac565b506020820151816001015590505050565b6060600060046000016004600101548180546103d0906108c9565b80601f01602080910402602001604051908101604052809291908181526020018280546103fc906108c9565b80156104495780601f1061041e57610100808354040283529160200191610449565b820191906000526020600020905b81548152906001019060200180831161042c57829003601f168201915b50505050509150915091509091565b6002806000018054610469906108c9565b80601f0160208091040260200160405190810160405280929190818152602001828054610495906108c9565b80156104e25780601f106104b7576101008083540402835291602001916104e2565b820191906000526020600020905b8154815290600101906020018083116104c557829003601f168201915b5050505050908060010154905082565b6004806000018054610503906108c9565b80601f016020809104026020016040519081016040528092919081815260200182805461052f906108c9565b801561057c5780601f106105515761010080835404028352916020019161057c565b820191906000526020600020905b81548152906001019060200180831161055f57829003601f168201915b5050505050908060010154905082565b6060600060026000016002600101548180546105a7906108c9565b80601f01602080910402602001604051908101604052809291908181526020018280546105d3906108c9565b80156106205780601f106105f557610100808354040283529160200191610620565b820191906000526020600020905b81548152906001019060200180831161060357829003601f168201915b50505050509150915091509091565b6000604051905090565b600080fd5b600080fd5b600080fd5b600080fd5b6000601f19601f8301169050919050565b7f4e487b7100000000000000000000000000000000000000000000000000000000600052604160045260246000fd5b6106968261064d565b810181811067ffffffffffffffff821117156106b5576106b461065e565b5b80604052505050565b60006106c861062f565b90506106d4828261068d565b919050565b600067ffffffffffffffff8211156106f4576106f361065e565b5b6106fd8261064d565b9050602081019050919050565b82818337600083830152505050565b600061072c610727846106d9565b6106be565b90508281526020810184848401111561074857610747610648565b5b61075384828561070a565b509392505050565b600082601f8301126107705761076f610643565b5b8135610780848260208601610719565b91505092915050565b60006020828403121561079f5761079e610639565b5b600082013567ffffffffffffffff8111156107bd576107bc61063e565b5b6107c98482850161075b565b91505092915050565b600081519050919050565b600082825260208201905092915050565b60005b8381101561080c5780820151818401526020810190506107f1565b60008484015250505050565b6000610823826107d2565b61082d81856107dd565b935061083d8185602086016107ee565b6108468161064d565b840191505092915050565b6000819050919050565b61086481610851565b82525050565b600060408201905081810360008301526108848185610818565b9050610893602083018461085b565b9392505050565b7f4e487b7100000000000000000000000000000000000000000000000000000000600052602260045260246000fd5b600060028204905060018216806108e157607f821691505b6020821081036108f4576108f361089a565b5b50919050565b60008190508160005260206000209050919050565b60006020601f8301049050919050565b60008160020a8302905092915050565b60006008830261095f7fffffffffffffffffffffffffffffffffffffffffffffffffffffffffffffffff8261091f565b610969868361091f565b95508019841693508086168417925050509392505050565b6000819050919050565b60006109a66109a161099c84610851565b610981565b610851565b9050919050565b6000819050919050565b6109c08361098b565b6109d46109cc826109ad565b84845461092f565b825550505050565b600090565b6109e96109dc565b6109f48184846109b7565b505050565b5b81811015610a1857610a0d6000826109e1565b6001810190506109fa565b5050565b601f821115610a5d57610a2e816108fa565b610a378461090f565b81016020851015610a46578190505b610a5a610a528561090f565b8301826109f9565b50505b505050565b60008160020a8304905092915050565b6000610a8360001984600802610a62565b1980831691505092915050565b6000610a9c8383610a72565b9150826002028217905092915050565b610ab5826107d2565b67ffffffffffffffff811115610ace57610acd61065e565b5b610ad882546108c9565b610ae3828285610a1c565b600060209050601f831160018114610b165760008415610b04578287015190505b610b0e8582610a90565b865550610b76565b601f198416610b24866108fa565b60005b82811015610b4c57848901518255600182019150602085019450602081019050610b27565b86831015610b695784890151610b65601f891682610a72565b8355505b6001600288020188555050505b50505050505056fea2646970667358221220c6b36a795f1e8bfd785e4d382a912275b4e29f3fa62566c85b0bb393b678fd3e64736f6c63430008150033",
  "immutableReferences": {},
  "source": "// SPDX-License-Identifier: MIT\r\npragma solidity ^0.8.0;\r\n\r\ncontract SmartContract {\r\n    struct UserRecord {\r\n        string data;\r\n        uint256 timestamp;\r\n    }\r\n    \r\n    UserRecord public user_registration;\r\n    UserRecord public access_control;\r\n    UserRecord public permission;\r\n       \r\n    // Call this function to register user details data to Blockchain with current timestamp\r\n    function setSignup(string memory ur) public {\r\n       user_registration = UserRecord(ur, block.timestamp);\t\r\n    }\r\n    \r\n    // Get register details and timestamp\r\n    function getSignup() public view returns (string memory, uint256) {\r\n        return (user_registration.data, user_registration.timestamp);\r\n    }\r\n\r\n    // Call this function to manage access details in Blockchain with current timestamp\r\n    function setAccess(string memory ac) public {\r\n       \r\n       access_control = UserRecord(ac, block.timestamp);\t\r\n    }\r\n    \r\n    // Get access control details and timestamp\r\n    function getAccess() public view returns (string memory, uint256) {\r\n        return (access_control.data, access_control.timestamp);\r\n    }\r\n\r\n    // Call this function to manage permission details in Blockchain with current timestamp\r\n    function setPermission(string memory per) public {\r\n       permission = UserRecord(per, block.timestamp);\t\r\n    }\r\n    \r\n    // Get permission details and timestamp\r\n    function getPermission() public view returns (string memory, uint256) {\r\n        return (permission.data, permission.timestamp);\r\n    }\r\n}",
  "sourcePath": "/Users/devilvault/Desktop/FinalProject/Django/block/contracts/SmartContract.sol",
  "compiler": {
    "name": "solc",
    "version": "0.8.21+commit.d9974bed.Emscripten.clang"
  },
  "schemaVersion": "3.4.16",
  "updatedAt": "2025-06-24T15:09:12.972Z",
  "networkType": "ethereum",
  "devdoc": {
    "kind": "dev",
    "methods": {},
    "version": 1
  },
  "userdoc": {
    "kind": "user",
    "methods": {},
    "version": 1
  }
}