{
  "contractName": "SmartContract",
  "abi": [
    {
      "inputs": [],
      "stateMutability": "nonpayable",
      "type": "constructor"
    },
    {
      "inputs": [],
      "name": "access_control",
      "outputs": [
        {
          "internalType": "string",
          "name": "",
          "type": "string"
        }
      ],
      "stateMutability": "view",
      "type": "function",
      "constant": true
    },
    {
      "inputs": [],
      "name": "permission",
      "outputs": [
        {
          "internalType": "string",
          "name": "",
          "type": "string"
        }
      ],
      "stateMutability": "view",
      "type": "function",
      "constant": true
    },
    {
      "inputs": [],
      "name": "user_registration",
      "outputs": [
        {
          "internalType": "string",
          "name": "",
          "type": "string"
        }
      ],
      "stateMutability": "view",
      "type": "function",
      "constant": true
    },
    {
      "inputs": [
        {
          "internalType": "string",
          "name": "ur",
          "type": "string"
        }
      ],
      "name": "setSignup",
      "outputs": [],
      "stateMutability": "nonpayable",
      "type": "function"
    },
    {
      "inputs": [],
      "name": "getSignup",
      "outputs": [
        {
          "internalType": "string",
          "name": "",
          "type": "string"
        }
      ],
      "stateMutability": "view",
      "type": "function",
      "constant": true
    },
    {
      "inputs": [
        {
          "internalType": "string",
          "name": "ac",
          "type": "string"
        }
      ],
      "name": "setAccess",
      "outputs": [],
      "stateMutability": "nonpayable",
      "type": "function"
    },
    {
      "inputs": [],
      "name": "getAccess",
      "outputs": [
        {
          "internalType": "string",
          "name": "",
          "type": "string"
        }
      ],
      "stateMutability": "view",
      "type": "function",
      "constant": true
    },
    {
      "inputs": [
        {
          "internalType": "string",
          "name": "per",
          "type": "string"
        }
      ],
      "name": "setPermission",
      "outputs": [],
      "stateMutability": "nonpayable",
      "type": "function"
    },
    {
      "inputs": [],
      "name": "getPermission",
      "outputs": [
        {
          "internalType": "string",
          "name": "",
          "type": "string"
        }
      ],
      "stateMutability": "view",
      "type": "function",
      "constant": true
    }
  ],
  "bytecode": "0x608060405234801561001057600080fd5b5060408051602081019182905260009081905261002d9181610071565b5060408051602081019182905260009081905261004c91600191610071565b5060408051602081019182905260009081905261006b91600291610071565b5061015e565b82805461007d9061010a565b90600052602060002090601f01602090048101928261009f57600085556100e5565b82601f106100b857805160ff19168380011785556100e5565b828001600101855582156100e5579182015b828111156100e55782518255916020019190600101906100ca565b506100f19291506100f5565b5090565b5b808211156100f157600081556001016100f6565b60028104600182168061011e57607f821691505b60208210811415610158577f4e487b7100000000000000000000000000000000000000000000000000000000600052602260045260246000fd5b50919050565b6105238061016d6000396000f3fe608060405234801561001057600080fd5b50600436106100b0576000357c010000000000000000000000000000000000000000000000000000000090048063b97f95a111610083578063b97f95a114610103578063bddeab7714610116578063dd7b6a6a1461011e578063f3b0c8b714610126578063f7ca84311461012e57600080fd5b80633f5d9623146100b5578063488f56aa146100ca5780638b9a5c32146100dd578063a208bcc3146100fb575b600080fd5b6100c86100c3366004610393565b610136565b005b6100c86100d8366004610393565b61014d565b6100e5610160565b6040516100f29190610444565b60405180910390f35b6100e56101f2565b6100c8610111366004610393565b610280565b6100e5610293565b6100e56102a2565b6100e56102af565b6100e56102bc565b80516101499060029060208401906102cb565b5050565b80516101499060019060208401906102cb565b60606000805461016f90610499565b80601f016020809104026020016040519081016040528092919081815260200182805461019b90610499565b80156101e85780601f106101bd576101008083540402835291602001916101e8565b820191906000526020600020905b8154815290600101906020018083116101cb57829003601f168201915b5050505050905090565b600080546101ff90610499565b80601f016020809104026020016040519081016040528092919081815260200182805461022b90610499565b80156102785780601f1061024d57610100808354040283529160200191610278565b820191906000526020600020905b81548152906001019060200180831161025b57829003601f168201915b505050505081565b80516101499060009060208401906102cb565b60606002805461016f90610499565b600180546101ff90610499565b600280546101ff90610499565b60606001805461016f90610499565b8280546102d790610499565b90600052602060002090601f0160209004810192826102f9576000855561033f565b82601f1061031257805160ff191683800117855561033f565b8280016001018555821561033f579182015b8281111561033f578251825591602001919060010190610324565b5061034b92915061034f565b5090565b5b8082111561034b5760008155600101610350565b7f4e487b7100000000000000000000000000000000000000000000000000000000600052604160045260246000fd5b6000602082840312156103a557600080fd5b813567ffffffffffffffff808211156103bd57600080fd5b818401915084601f8301126103d157600080fd5b8135818111156103e3576103e3610364565b604051601f8201601f19908116603f0116810190838211818310171561040b5761040b610364565b8160405282815287602084870101111561042457600080fd5b826020860160208301376000928101602001929092525095945050505050565b600060208083528351808285015260005b8181101561047157858101830151858201604001528201610455565b81811115610483576000604083870101525b50601f01601f1916929092016040019392505050565b6002810460018216806104ad57607f821691505b602082108114156104e7577f4e487b7100000000000000000000000000000000000000000000000000000000600052602260045260246000fd5b5091905056fea26469706673582212204f94e50298df814796a24410573863409377f918db3f428f743313497376420a64736f6c634300080b0033",
  "immutableReferences": {},
  "source": "pragma solidity >= 0.8.11 <= 0.8.11;\r\n\r\ncontract SmartContract {\r\n    string public user_registration;\r\n    string public access_control;\r\n    string public permission;\r\n       \r\n    //call this function to register user details data to Blockchain\r\n    function setSignup(string memory ur) public {\r\n       user_registration = ur;\t\r\n    }\r\n   //get register details\r\n    function getSignup() public view returns (string memory) {\r\n        return user_registration;\r\n    }\r\n\r\n    //call this function to manage access details in Blockchain\r\n    function setAccess(string memory ac) public {\r\n       access_control = ac;\t\r\n    }\r\n   //get access control details\r\n    function getAccess() public view returns (string memory) {\r\n        return access_control;\r\n    }\r\n\r\n    //call this function to manage permission details in Blockchain\r\n    function setPermission(string memory per) public {\r\n       permission = per;\t\r\n    }\r\n   //get permission details\r\n    function getPermission() public view returns (string memory) {\r\n        return permission;\r\n    }\r\n\r\n   constructor() public {\r\n        user_registration=\"\";\r\n\taccess_control=\"\";\r\n\tpermission=\"\";\r\n    }\r\n}",
  "sourcePath": "C:\\Users\\Admin\\Desktop\\Blockchain\\hello-eth\\node_modules\\.bin\\contracts\\SmartContract.sol",
  "compiler": {
    "name": "solc",
    "version": "0.8.11+commit.d7f03943.Emscripten.clang"
  },
  "schemaVersion": "3.4.4",
  "updatedAt": "2024-02-15T16:54:26.908Z",
  "networkType": "ethereum",
  "devdoc": {
    "kind": "dev",
    "methods": {},
    "version": 1
  },
  "userdoc": {
    "kind": "user",
    "methods": {},
    "version": 1
  }
}